:020000040800F2
:10000000480D0020691600089505000897050008AE
:100010009B0500089F050008A305000800000000DC
:10002000000000000000000000000000A70500081C
:10003000A905000800000000AB050008AD05000898
:10004000831600088316000883160008831600082C
:10005000831600088316000815120008831600088E
:10006000831600086D1200089D1200088316000810
:1000700083160008831600088316000883160008FC
:1000800083160008831600088316000883160008EC
:1000900083160008831600088316000883160008DC
:1000A00083160008831600088316000883160008CC
:1000B00083160008FD0F0008831600088316000849
:1000C00083160008831600088316000883160008AC
:1000D00083160008DF150008831600088316000841
:1000E000831600088316000883160008831600088C
:1000F000831600088316000883160008831600087C
:10010000831600088316000883160008831600086B
:10011000831600088316000883160008831600085B
:10012000831600088316000883160008831600084B
:10013000831600088316000883160008831600083B
:10014000831600088316000883160008831600082B
:10015000831600088316000883160008831600081B
:10016000831600088316000883160008831600080B
:1001700083160008831600088316000883160008FB
:10018000831600088316000800F002F800F047F814
:100190000AA090E8000C82448344AAF10107DA45E2
:1001A00001D100F03CF8AFF2090EBAE80F0013F0ED
:1001B000010F18BFFB1A43F001031847F03E00007F
:1001C000103F0000103A24BF78C878C1FAD852070F
:1001D00024BF30C830C144BF04680C6070470000C1
:1001E0000023002400250026103A28BF78C1FBD840
:1001F000520728BF30C148BF0B607047642903F025
:10020000FB84782903F03485632903F0828600207B
:1002100070471FB503F017FF1FBD10B510BD03F0E9
:10022000DBFE1146FFF7F5FF00F0A0F803F0F9FE42
:1002300003B4FFF7F2FF03BC01F06EF910B5BE483E
:100240000068012842D1032001F046F9BA4801684C
:10025000BAA003F075FC002431E0BC48BC49096831
:1002600010F82100BB490860B848B949096800EB9B
:1002700081004078B849C1F89402B448B44909688B
:1002800000EB81008078B34908310860AF48B0497D
:10029000096800EB8100C078AF49C1F89C02AC4806
:1002A0000078401C00F00700A9490860032001F015
:1002B00013F9A1480068012800D003E0641CB4F5DC
:1002C000005FCADB00BF00209B4908609A480068B5
:1002D000022843D1052001F0FFF89748016897A054
:1002E00003F02EFC002432E098489949096810F880
:1002F000210098490C31086094489549096800EB41
:10030000810040789449C1F8980290489049096862
:1003100000EB810080788F49091D08608B488C496B
:10032000096800EB8100C0788B49C1F890028848C9
:100330000078401C00F0070085490860032001F0A8
:10034000CBF87D480068022800D003E0641CB4F5B7
:10035000805FC9DB00BF00207749086076480068ED
:1003600018B9F0217D4801F013FB10BDA82001F061
:1003700051F800F045FA00F023FA4FF4A06001F0C4
:1003800093F94FF4165001F0D4F800F0A1FF00F0FB
:100390003AFB42F2CF0141F2873000F003FE01F058
:1003A00005F81EE06E4801786EA003F0C9FB6C48AA
:1003B00041786CA003F0C4FB6948817869A003F020
:1003C000BFFB6748C17867A003F0BAFB64480179B6
:1003D00069A003F0B5FBFFF731FF4FF4FA6001F0BD
:1003E0007BF8DFE710B5044615E06848008801286F
:1003F00000D111E066480078012800D00CE03C20D4
:1004000000F0BDFB962001F067F83C2000F0E5FA13
:10041000962001F061F8E8E700BF10BD10B5044672
:1004200017E05A480088012800D113E058480078A6
:10043000022800D00EE03C2000F07CFB4FF47A70E4
:1004400001F04AF83C2000F0C8FA4FF47A7001F04D
:1004500043F8E6E700BF10BD10B504461AE04B486C
:100460000088012803D100204849088013E048484B
:100470000078032800D00EE03C2000F080FB4FF411
:100480007A7001F029F83C2000F0A7FA4FF47A7056
:1004900001F022F8E3E700BF10BD10B504463C2090
:1004A00000F048FB10BD10B504461AE0374800883C
:1004B000012803D100203549088013E03448007832
:1004C000052800D00EE03C2000F034FB4FF4FA7019
:1004D00001F002F83C2000F080FA4FF4FA7000F0CE
:1004E000FBFFE3E700BF10BD10B504463C2000F061
:1004F00066FC10BD10B504461AE0244800880128A7
:1005000003D100202149088013E021480078072802
:1005100000D00EE03C2000F052FC4FF4FA7000F0E6
:10052000DBFF3C2000F059FA4FF4FA7000F0D4FFE2
:10053000E3E700BF10BD0000600000206C61626551
:100540005F6B6579A3BA25640A00000002000020F1
:100550002400002090024342000043420018024061
:100560002006002055534152545F52585F42554671
:100570003A25630A0000000055534152545F525817
:100580005F4255463A25630A0A0000000000002039
:100590005C000020704700BFFEE700BFFEE700BF21
:1005A000FEE700BFFEE770477047704770470000E6
:1005B0000CB50020019000907648006840F480302F
:1005C0007449086000BF7348006800F40030009070
:1005D0000198401C0190009818B90198B0F5A04FFF
:1005E000F1D16C48006800F4003010B10120009097
:1005F00001E0002000900098012846D16548403075
:10060000006840F0805063494031086062480068EB
:1006100040F44040604908605E48083000685D4929
:10062000083108600846006840F400400860084649
:10063000006840F4A05008605848091F0860081F6F
:10064000006840F08070091F086000BF51480068D2
:1006500000F000700028F9D040F2057050490860A1
:100660004C480830006820F003004A49083108600F
:100670000846006840F00200086000BF45480830A6
:10068000006800F00C000828F8D10CBD10B54548F2
:10069000006840F47000434908603E48006840F03C
:1006A00001003C49086000203A4908310860394897
:1006B00000683D490840374908603C48091D08600A
:1006C000081F006820F48020091F086000203149BD
:1006D0000C310860FFF76CFF4FF000603149803942
:1006E000086010BD70B50020002202230024022102
:1006F000284D08352D6805F00C0020B1042806D0DF
:10070000082834D107E02A4D2A4E356033E02A4DBF
:10071000284E35602FE01F4D2D1D2D68C5F38054E8
:100720001C4D2D1D2D6805F03F0154B1224DB5FB28
:10073000F1F5184E361D3668C6F3881605FB06F22D
:1007400009E01B4DB5FBF1F5124E361D3668C6F3B8
:10075000881605FB06F20F4D2D1D2D68C5F30145CA
:100760006D1C6B00B2FBF3F5124E356003E0104DCB
:10077000104E356000BF00BF064D08352D68C5F32B
:1007800003150E4E705D0B4D2D68C540094E35604A
:1007900070BD00000038024000700040085440075F
:1007A000003C024088ED00E0FFFFF6FE1030002420
:1007B0000024F4002800002000127A002C00002001
:1007C0001CB50121202001F003FB4FF4C060009014
:1007D00001208DF8040000208DF8060003208DF81C
:1007E000050001208DF807006946044801F052F821
:1007F0004FF4C061014801F0C9F81CBD001402406B
:100800001CB50121112001F0E3FA1C20009000200A
:100810008DF8040003208DF8050001208DF80700F5
:100820006946354801F036F80120009002208DF825
:1008300007006946314801F02DF81CBD10B504468B
:1008400014B101202E4908702D480078002837D0B7
:100850001021294801F080F878B10821264801F0DC
:100860007BF850B10421244801F076F828B1012129
:10087000224801F071F8012822D10A2000F02CFE54
:1008800000201F49087010211B4801F065F808B9C5
:10089000012010BD0821184801F05EF808B90220B7
:1008A000F7E70421144801F057F808B90320F0E7EE
:1008B0000121124801F050F801281BD10420E8E77B
:1008C00010210D4801F048F8012813D108210A48E9
:1008D00001F042F801280DD10421074801F03CF84D
:1008E000012807D10121054801F036F810B901208F
:1008F000034908700020CCE70010024000000240CD
:100900003C00002010B5F94801F053FF48B1002128
:10091000F64801F001FF00BFF44801F04AFF00284B
:10092000FAD14FF4B461F14801F017FF0121EF480B
:1009300001F0F2FE00BFEE49EC4801F04AFF00284A
:10094000F9D0EB49E94801F060FF10BD13B504464A
:100950003C2C03DBE7A003F0F3F81CBD002038E0DB
:100960009DF80510C0F1070301229A40114009B11A
:10097000FC2100E0C02104EB4402E44B03EBC20283
:1009800011549DF80410C0F1070301229A40114050
:1009900009B1FC2200E0C02204EB4401DB4B03EB75
:1009A000C10300F108015A549DF80610C0F1070375
:1009B00001229A40114009B1FC2200E0C02204EB60
:1009C0004401D24B03EBC10300F110015A54411C06
:1009D000C8B20828C4DB00BFBFE738B5054600240D
:1009E0000CE0CB480188ADF8001080788DF802004B
:1009F00020460099FFF7AAFF601C84B2AC42F0DBEE
:100A0000FFF780FF38BD00B597B00121022001F04B
:100A1000DFF90121880301F024FA0121480501F0E2
:100A2000D7F94FF40040159002208DF858000020AF
:100A30008DF85A0003208DF8590001208DF85B00D5
:100A400015A9B44800F026FF05220F21B14800F097
:100A5000ACFF0020ADF840004FF48270ADF84200CA
:100A60000020ADF84400ADF846000120ADF8480084
:100A70004002ADF84A001020ADF84C000020ADF85F
:100A80004E000720ADF8500010A9A34801F088FFE0
:100A90000121A14802F07EF8944801F061FD00BFF9
:100AA000924801F086FE0028FAD101909A480C3055
:100AB000029096480390402004904FF4B460059053
:100AC000002006904FF48060079000200890099065
:100AD0000A904FF480300B9000200C9003200D9072
:100AE00000200E900F9001A9804801F0DBFD01224B
:100AF0000221894802F0EDF800217C4801F00CFE4B
:100B000000BF7A4801F055FE0028FAD14FF4B461D5
:100B1000764801F022FE0121744801F0FDFD01201C
:100B200000F0DAFC3C20FFF758FF012000F0D4FC75
:100B300017B000BD38B5054600240CE077480188A1
:100B4000ADF8001080788DF8020020460099FFF77C
:100B5000FDFE601C84B2AC42F0DBFFF7D3FE38BD73
:100B600073B50546002405E020460199FFF7EEFE27
:100B7000601C84B2AC42F7DBFFF7C4FE7CBD38B525
:100B8000054600240CE066480188ADF80010807826
:100B90008DF8020020460099FFF7D8FE601C84B251
:100BA000AC42F0DBFFF7AEFE38BD38B50546002499
:100BB0000CE05C480188ADF8001080788DF80200E8
:100BC00020460099FFF7C2FE601C84B2AC42F0DB05
:100BD000FFF798FE38BD38B5054600240CE05248B2
:100BE0000188ADF8001080788DF802002046009949
:100BF000FFF7ACFE601C84B2AC42F0DBFFF782FE74
:100C000038BD38B5054600240CE048480188ADF8E9
:100C1000001080788DF8020020460099FFF796FEBC
:100C2000601C84B2AC42F0DBFFF76CFE38BD38B517
:100C3000054600240CE03E480188ADF8001080789D
:100C40008DF8020020460099FFF780FE601C84B2F8
:100C5000AC42F0DBFFF756FE38BD38B50546002440
:100C60000CE034480188ADF8001080788DF802005F
:100C700020460099FFF76AFE601C84B2AC42F0DBAC
:100C8000FFF740FE38BDF8B5074600250CE02A48BE
:100C90000188ADF8001080788DF802002846009990
:100CA000FFF754FE681C85B2BD42F0DB002417E05C
:100CB000214622A002F044FF00260AE004EB440093
:100CC000124A02EBC000815D1FA002F039FF701CC8
:100CD000C6B2182EF2DB1EA002F032FF601CC4B2B6
:100CE0003C2CE5DBFFF70EFEF8BD00007060024013
:100CF000200000204572726F723A204F7574206F89
:100D0000662052616E6765210D0A00008000002098
:100D10006540000800040240003800406E400008B2
:100D2000504000086B400008594000085C40000833
:100D30006240000853400008564000084C454420DB
:100D400025643A20000000002530325820000000C1
:100D50000A000000F8B5074600250CE08E4801881F
:100D6000ADF8001080788DF8020028460099FFF752
:100D7000EDFD681C85B2BD42F0DB00241AE021467F
:100D8000AFF2480002F0DCFE00260BE004EB44006A
:100D9000824A02EBC000815DAFF2540002F0D0FE47
:100DA000701CC6B2182EF1DBAFF25C0002F0C8FE78
:100DB000601CC4B23C2CE2DBFFF7A4FDF8BD38B5E3
:100DC000054600240CE076480188ADF800108078D4
:100DD0008DF8020020460099FFF7B8FD601C84B230
:100DE000AC42F0DBFFF78EFD38BD08B50146C1F11E
:100DF000FF01552916DA01EB4100C0F1FF00C0B236
:100E00008DF8000000208DF8010001EB4100C0B218
:100E10008DF80200BDF8002010469DF8022040EA3F
:100E2000024008BDAA2919DAA1F15500C1B200207B
:100E30008DF8000001EB4100C0B28DF8010001EB1C
:100E40004100C0F1FF00C0B28DF80200BDF80020E3
:100E500010469DF8022040EA0240E2E7A1F1AA0014
:100E6000C1B201EB4100C0B28DF8000001EB4100BE
:100E7000C0F1FF00C0B28DF8010000208DF8020023
:100E8000BDF8002010469DF8022040EA0240C8E765
:100E9000F8B50546002600BF19E000240EE0200248
:100EA00090FBF5F03044C7B23846FFF79EFF01468D
:100EB00000902046FFF74AFD601C84B2AC42EEDB96
:100EC000FFF720FD642000F007FB701C86B240F2A3
:100ED000FF308642E1DBF8BD73B582B006460024E0
:100EE00029E000251EE09DF80C006043FF2190FBE7
:100EF000F1F0C0B28DF804009DF80D00604390FB46
:100F0000F1F0C0B28DF805009DF80E00604390FB33
:100F1000F1F0C0B28DF8060028460199FFF716FDE2
:100F2000681C85B2B542DEDBFFF7ECFC0A2000F05E
:100F3000D3FA601C84B2FF2CD3DDFF2429E0002506
:100F40001EE09DF80C006043FF2190FBF1F0C0B261
:100F50008DF804009DF80D00604390FBF1F0C0B2E5
:100F60008DF805009DF80E00604390FBF1F0C0B2D3
:100F70008DF8060028460199FFF7E8FC681C85B249
:100F8000B542DEDBFFF7BEFC0A2000F0A5FA601ECA
:100F900084B2002CD3DC7FBD5F40000880000020BD
:100FA000684000087FB505460C460121022000F08C
:100FB00058FF0295ADF804400020ADF80600ADF8EA
:100FC0000C0001A9764801F08CFF012211467448FB
:100FD00002F028FC0121724802F00CF81D208DF867
:100FE000000001208DF8010003208DF8020001208F
:100FF0008DF80300684600F05CFB7FBD08B5012159
:10100000674802F026FC01287ED1032000F064FA34
:10101000644800783038642110FB01F16148407861
:10102000303800EB800001EB40015E4880783038BA
:1010300008445D4908605B4800793038642110FB42
:1010400001F158484079303800EB800001EB400155
:101050005448807930380844544908605148007A2F
:101060003038642110FB01F14E48407A303800EBF3
:10107000800001EB40014B48807A303808444C49ED
:101080000860484800783038642110FB01F1454879
:101090004078303800EB800001EB40014148807817
:1010A00030380844002807DA00203F4908603F49EB
:1010B00008603F49086019E03B4800788DF800005F
:1010C0003A4800788DF80100394800788DF8020020
:1010D0003848006818B93C200099FFF741FD01200D
:1010E0003449086000203449087000BFC8212D48E9
:1010F00002F086FE3148008800F40040002832D01B
:101100002E4800782E4900E045E008702DA002F03E
:1011100017FD012030490880002026490860012081
:1011200000F0DAF900202D49087012E01D482B4A22
:101130001278815C2A4801F003F900BF4021284859
:1011400001F0AEF90128F9D124480078401C234968
:101150000870224800781A4909788842E6DB0020A6
:10116000164908800FE01F480088401C1D49088070
:1011700008460088642190FBF1F201FB120010B9CF
:1011800019A002F0DDFC2248006808B9012000E047
:1011900000201F4908600121014802F06BFB08BDD7
:1011A0000004004020060020480000204C000020E1
:1011B00050000020540000205C0000206C00002043
:1011C000420000200D0AC4FAB7A2CBCDB5C4CFFBB4
:1011D000CFA2CEAA3A0D0A00000000204000002055
:1011E00000100140440000200D0A206D6375646505
:1011F000762053544D333246343037BFAAB7A2B0AD
:10120000E520B4AEBFDACAB5D1E90D0A000000008E
:10121000A882424210B50A2000F05EF901215A4826
:1012200000F09AFB01281DD10020584908800520B4
:1012300000F052F956480078401C5549087008469D
:101240000078092801DB002008705148017851A07E
:1012500002F076FC5248006808B9012000E0002046
:101260004F490860012002F060FC10BD10B50A2053
:1012700000F032F908214B4800F06EFB68B90120FC
:10128000494908604648006808B9012000E000208C
:1012900043490860082002F048FC10BD10B50A2040
:1012A00000F01AF910213F4800F056FB78B90220EF
:1012B0003D4908603A48001F006808B9012000E075
:1012C00000203749091F0860102002F02EFC10BDD5
:1012D0000EB5FFF795FA0121880300F0D3FD042134
:1012E000084600F0DAFE0321042000F0D6FE0021BB
:1012F000084600F0D2FE0120009000208DF8040086
:1013000008208DF8050001208DF80600684602F0DF
:101310009BFB1820009000208DF804000C208DF815
:10132000050001208DF80600684602F08DFB0620BE
:101330008DF8080000208DF8090002208DF80A00C1
:1013400001208DF80B0002A800F0B3F909208DF8F8
:10135000080003208DF8090002208DF80A00012002
:101360008DF80B0002A800F0A4F90A208DF80800FF
:1013700002208DF809008DF80A0001208DF80B007D
:1013800002A800F096F90EBD000002400000002007
:101390005C0000206C65645F6C61623A25640A0041
:1013A000A882424200100240600000201CB50121CA
:1013B000402000F00DFDF020009001208DF8040089
:1013C00000208DF8060002208DF8050000208DF821
:1013D000070069460C4800F05DFA1CBD00BF010023
:1013E000A0F10100FBD17047084A1268084BB2FB1C
:1013F000F3F20523B2FBF3F202FB00F100BF0A0097
:10140000A1F10101FBD17047001802402800002023
:1014100040420F0010B504466FF0040000F096F94A
:10142000E11704EB5171C1F3C701394A117010463D
:10143000007800EB4001C1EBC0104FF6FF7101EAEC
:10144000C0003449088010BD0146314A12784A4331
:101450004FF0E0235A6100229A611A46126942F065
:1014600001021A6100BF4FF0E022106900F0010292
:101470001AB100F48032002AF5D04FF0E022126950
:1014800022F001024FF0E0231A6100229A617047B6
:101490000146204A12884A434FF0E0235A61002255
:1014A0009A611A46126942F001021A6100BF4FF0B8
:1014B000E022106900F001021AB100F48032002A23
:1014C000F5D04FF0E022126922F001024FF0E02344
:1014D0001A6100229A61704770B504464FF4077094
:1014E00094FBF0F0C6B24FF4077094FBF0F100FBF0
:1014F000114085B205E04FF40770FFF7C9FF701E79
:10150000C6B2002EF7D115B12846FFF7C1FF70BD56
:10151000640000206600002000BF704700BF4E4AF4
:10152000128802F04002002AF9D0C2B24A4B9A80D7
:10153000704710B588B004460121084600F048FC09
:101540000121102000F09EFC07220921434800F0F1
:101550002CFA07220A21414800F027FA4FF4C06014
:10156000069002208DF81C008DF81D0000208DF8DB
:101570001E0001208DF81F0006A9384800F08AF9E6
:1015800002940020ADF80C00ADF80E00ADF810008C
:10159000ADF814000C20ADF8120002A92E4800F09E
:1015A0001CFE01212C4800F0A0FE40212A4800F03A
:1015B00084FF012240F22551274800F04CFF2520EE
:1015C0008DF8040003208DF805008DF80600012039
:1015D0008DF8070001A800F06CF808B010BD10B538
:1015E00040F225511C4800F071FF10B31A4800F07A
:1015F000ABFEC4B21A48008800F40040C8B91848CD
:10160000008800F4804060B10A2C03D00020144907
:10161000088020E01248008840F40040104908800B
:1016200019E00D2C06D10E48008840F480400C498A
:10163000088010E00A480088C0F30D0009490C54E6
:1016400007480088401C0649088008460088C728CB
:1016500001DD0020088010BD0010014000000240A4
:101660006C000020200600200948804709480047F8
:10167000FEE7FEE7FEE7FEE7FEE7FEE7FEE7FEE742
:10168000FEE7FEE704480549054A064B704700009F
:101690008D0600088901000848070020480D002039
:1016A000480900204809002032490143324A1160AC
:1016B000704770B5002100230F22C4781CB32E4C54
:1016C000246804F4E064C4F5E064C4F30721C1F1C4
:1016D0000404E3B20A4144789C40E1B284781440A7
:1016E00021430C07210E254C05786155047804F040
:1016F0001F050124AC4005786D11AD0005F1E02512
:10170000C5F8004109E0047804F01F050124AC404D
:101710001B4D0678761145F8264070BD194A0A40DF
:101720000243154B1B1F1A60704739B1124A121D34
:1017300012680243104B1B1D1A6006E00E4A121D70
:10174000126882430C4B1B1D1A607047042808D195
:101750004FF0E021096941F004014FF0E0221161EE
:1017600007E04FF0E021096921F004014FF0E02289
:10177000116170470000FA050CED00E000E400E0A4
:1017800080E100E080FFFF1F10B5044698488442C6
:1017900008D10121084600F086FB0021012000F05D
:1017A00082FB76E09348844208D10121022000F0B8
:1017B0007AFB0021022000F076FB6AE08E4884422A
:1017C00008D10121042000F06EFB0021042000F06C
:1017D0006AFB5EE08948844208D10121082000F0BC
:1017E00062FB0021082000F05EFB52E08448844246
:1017F00008D10121102000F056FB0021102000F03C
:1018000052FB46E07F48844208D10121202000F0AD
:101810004AFB0021202000F046FB3AE07A4884424F
:1018200008D10121402000F03EFB0021402000F0C3
:101830003AFB2EE07548844208D10121802000F057
:1018400032FB0021802000F02EFB22E07048844211
:1018500008D10121801500F026FB0021A01500F021
:1018600022FB16E06B48844208D10121401500F0AC
:101870001AFB0021601500F016FB0AE0664884425E
:1018800007D10121001500F00EFB0021201500F00A
:101890000AFB10BDF0B50A4600210023002400BF5A
:1018A0003DE0012505FA01F3156805EA03049C42B1
:1018B00034D105684F000326BE40B5430560157955
:1018C0004E00B5400668354305601579012D02D0FC
:1018D0001579022D16D185684F000326BE40B54309
:1018E000856055794E00B54086683543856045680A
:1018F00001268E40B5434560456896798E40B6B264
:1019000035434560C5684F000326BE40B543C560FA
:10191000D5794E00B540C6683543C560491C1029CD
:10192000BFD3F0BD4FF6FF7101600021017141711D
:101930008171C171704708B54FF480320092009AEE
:101940000A430092009AC261C161009AC261C269F1
:101950000092C269009208BD0246002013690B4044
:101960000BB1012000E0002070470146086980B2F9
:1019700070470246002053690B400BB1012000E084
:10198000002070470146486980B270470183704764
:10199000418370470AB1018300E041837047416190
:1019A000704742694A4042617047F0B50023002405
:1019B0004D07ED0E02FA05F3CE1000F1200555F8A3
:1019C00026504E07F70E0F26BE40B543CF1000F14C
:1019D000200646F82750CE1000F1200555F8265075
:1019E00045EA0304CE1000F1200545F82640F0BD7D
:1019F000000002400004024000080240000C0240C7
:101A0000001002400014024000180240001C024076
:101A1000002002400024024000280240F9480068EB
:101A200040F00100F74908600020F64908310860DD
:101A3000F4480068F4490840F2490860F348091D79
:101A40000860F348EF4984310860F0481038091DF8
:101A50000860EC48006820F48020EA490860002013
:101A6000E8490C310860E7498C3108607047002173
:101A7000E44A921C117011460870704710B5014677
:101A80000022002300204A11012A02D1DD4C2368E4
:101A900008E0022A03D1DB4C7034236802E0D94C01
:101AA0007434236801F01F02012494401C400CB1DF
:101AB000012000E0002010BD38B500200090002477
:101AC000002500BF3120FFF7D9FF05460098401CD4
:101AD00000900098B0F5A04F01D0002DF2D0312039
:101AE000FFF7CCFF08B1012400E00024204638BDF8
:101AF00001460020C34A106820F0F80040EAC10007
:101B000010607047C349086070470021BD4A7032B9
:101B100011701170012802D004280AD104E00121BB
:101B2000B84A7032117005E00521B64A7032117062
:101B300000E000BF00BF7047B7490860704770B54C
:101B4000049C41EA82150126C6EB530645EA064588
:101B5000054345EA0465AB4E361D356070BDAD49A1
:101B600008667047820142EA0172A64B84331A600C
:101B70007047A8498866704710B5830143EA01633E
:101B800043EA02739F4C8834236010BDA149086763
:101B90007047A049C864704702460020994B08333B
:101BA000186820F0EC6042EA01031843954B0833B3
:101BB0001860704702460020924B0833186820F0E6
:101BC000784042EA010318438E4B0833186070478F
:101BD000014600208B4A0832106820F003000843B9
:101BE0001060704787480830006800F00C007047AC
:101BF00001460020834A0832106820F0F0000843B4
:101C000010607047014600207E4A0832106820F4B8
:101C1000E05008431060704701460020794A0832BE
:101C2000106820F4604040EAC10010607047F0B5D1
:101C3000002100220024022500260223714F0837CC
:101C40003F6807F00C0121B1042905D0082937D1DC
:101C500005E0724F076036E0714F076033E0694F6F
:101C60003F1D3F68C7F38056664F3F1D3F6807F032
:101C70003F036EB16A4FB7FBF3F7DFF888C10CF191
:101C8000040CDCF800C0CCF3881C07FB0CF40CE05F
:101C9000624FB7FBF3F7DFF86CC10CF1040CDCF812
:101CA00000C0CCF3881C07FB0CF4564F3F1D3F6867
:101CB000C7F301477F1C7D00B4FBF5F7076002E026
:101CC000564F076000BF00BF4E4F08373F6807F010
:101CD000F0010909534F7A5C0768D7404760494FC4
:101CE00008373F6807F4E051890A4E4F7A5C47682D
:101CF000D7408760434F08373F6807F46041490B7E
:101D0000484F7A5C4768D740C760F0BD002100F4B7
:101D10004072B2F5407F0AD13A4A0832116821F484
:101D2000F811414A02401143364A08321160354ADF
:101D300070321268C0F30B031A43324B70331A60CF
:101D40007047354944390860704733494039086065
:101D5000704736490860704701460020294A8C3296
:101D6000106820F01F004A1E1043264A8C32106073
:101D7000704701460020234A8C32106820F4F85046
:101D80004A1E40EA02201F4A8C321060704701460A
:101D900000201C4A8C32106820F440100843106068
:101DA000704701460020174A8C32106820F440002A
:101DB00008431060704701460020124A8C321068B8
:101DC00020F440300843106070471949086070479C
:101DD00039B10C4A3032126802430A4B30331A6070
:101DE00006E0084A303212688243064B30331A60EC
:101DF0007047F9B1034A343212680243014B34335D
:101E00001A601CE000380240FFFFF6EA10300024A0
:101E10000030002000004742800E47420024F400BA
:101E200000127A006E000020FFFCFF0F5C014742A9
:101E3000E01147428F4A126882438E4B1A60704706
:101E400039B18C4A121D126802438A4B1B1D1A605D
:101E500006E0884A121D12688243864B1B1D1A60D9
:101E6000704739B1834A0C3212680243814B0C33FC
:101E70001A6006E07F4A0C32126882437D4B0C33B5
:101E80001A60704739B17B4A103212680243794BAD
:101E900010331A6006E0774A103212688243754B9D
:101EA00010331A60704739B1724A243A12680243FB
:101EB000704B243B1A6006E06E4A243A1268824353
:101EC0006C4B243B1A60704739B16A4A203A126859
:101ED0000243684B203B1A6006E0664A203A1268CB
:101EE0008243644B203B1A60704739B1614A1C3A07
:101EF000126802435F4B1C3B1A6006E05D4A1C3AC5
:101F0000126882435B4B1C3B1A60704739B1594AD7
:101F1000143A12680243574B143B1A6006E0554AC4
:101F2000143A12688243534B143B1A60704739B11C
:101F3000504A103A126802434E4B103B1A6006E0BA
:101F40004C4A103A126882434A4B103B1A60704761
:101F500039B1484A1C3212680243464B1C331A609E
:101F600006E0444A1C3212688243424B1C331A601A
:101F7000704739B13F4A2032126802433D4B20334B
:101F80001A6006E03B4A203212688243394B203304
:101F90001A60704739B1374A243212680243354B10
:101FA00024331A6006E0334A243212688243314BEC
:101FB00024331A60704739B12E4A2C32126802431A
:101FC0002C4B2C331A6006E02A4A2C3212688243CA
:101FD000284B2C331A60704739B1264A30321268C8
:101FE0000243244B30331A6006E0224A3032126832
:101FF0008243204B30331A607047012808D11D49B5
:102000003C31096841F008011A4A3C32116007E08E
:1020100018493C31096821F00801164A3C32116028
:10202000704739B1134A273A12780243114B273BC4
:102030001A7006E00F4A273A127882430D4B273B6D
:102040001A7070470B484030006840F080700949B2
:1020500040310860704701460020064A283A12685D
:102060000A400AB1012000E00020704701492639EA
:10207000087070473438024010B501218803FFF71B
:1020800056FF00214FF48040FFF751FF10BD1C495F
:10209000086070471B490862704730B500228B0703
:1020A0001C0F0F2303FA04F2154B08338C1053F85E
:1020B00024309343124C08348D1044F825302346C5
:1020C0008C1053F824308C07240F00FA04F42343B7
:1020D0000B4C08348D1044F8253030BD0949DC31F3
:1020E00008607047084908607047002004492031A3
:1020F000096801F4807109B1012000E000207047F7
:1021000000380140000027420004274210B5044671
:10211000FA48844208D101211020FFF708FF00216E
:102120001020FFF704FF57E0F548844209D1012150
:102130004804FFF7EBFE00214FF40030FFF7E6FE06
:102140004AE0F048844209D101218804FFF7DEFE0D
:1021500000214FF48020FFF7D9FE3DE0EA48844299
:1021600009D10121C804FFF7D1FE00214FF400205E
:10217000FFF7CCFE30E0E548844209D10121080593
:10218000FFF7C4FE00214FF48010FFF7BFFE23E0ED
:10219000DF48844208D101212020FFF7C8FE00213A
:1021A0002020FFF7C4FE17E0DA48844209D101215C
:1021B0008807FFF7ABFE00214FF08040FFF7A6FE37
:1021C0000AE0D548844207D101214005FFF79EFE71
:1021D00000216005FFF79AFE10BD2DE9FF47054677
:1021E0000E460024A14600BFA046B08900B100BF42
:1021F0002C8A24F44054F08804432C82AC8941F2A8
:102200000C608443B08831890843718908430443D2
:10221000AC81AC8A24F44074B0890443AC82684633
:10222000FFF705FDB548854202D0B948854202D185
:10223000DDF80C9001E0DDF80890A88900F400407A
:1022400040B109EBC90000EB091031684900B0FB4F
:10225000F1F707E009EBC90000EB091031688900CC
:10226000B0FBF1F76420B7FBF0F004012009642112
:1022700001FB1078A88900F4004040B1322000EB47
:10228000C800B0FBF1F000F00700044308E0322082
:1022900000EB08106421B0FBF1F000F00F000443E4
:1022A0002C81BDE8FF874FF4165101600021818029
:1022B000C18001810C21418100218181704710B5CD
:1022C00002460020108A20F470600B884C8823435B
:1022D0008C882343CC8823431843108210BD0021EF
:1022E000018041808180C180704721B1828942F4A0
:1022F0000052828104E082894DF6FF731A40828188
:102300007047028B02F47F420283028B0A430283EE
:10231000704721B1828942F40042828103E08289C0
:10232000C2F30E028281704721B1828A42F40062B8
:10233000828204E0828A4FF2FF731A4082827047E1
:10234000C1F308028280704701468888C0F3080004
:102350007047028A4FF6F0731A400282028A0A43DB
:102360000282704721B1828942F00202828104E038
:1023700082894FF6FD731A408281704782894FF23D
:10238000FF731A40828182890A4382817047028AE0
:102390004FF6DF731A400282028A0A4302827047B4
:1023A00021B1028A42F48042028204E0028A4BF6A2
:1023B000FF731A4002827047818941F001018181D7
:1023C000704721B1828A42F00802828204E0828A48
:1023D0004FF6F7731A4082827047028BD2B20283A3
:1023E000028B42EA01220283704721B1828A42F0C5
:1023F0002002828204E0828A4FF6DF731A408282D2
:10240000704721B1828A42F01002828204E0828AFF
:102410004FF6EF731A4082827047828A4FF6FB7341
:102420001A408282828A0A438282704721B1828A5C
:1024300042F00202828204E0828A4FF6FD731A4063
:10244000828270471AB1838A0B43838202E0838AB7
:102450008B4383827047F0B5034600240026002595
:10246000002040F66A17B94200D100BF1846C1F3F8
:10247000421401F01F06012707FA06F5012C01D1CD
:102480000C3004E0022C01D1103000E014301AB1FD
:1024900007682F43076002E00768AF430760F0BD9D
:1024A00002460020B1F5007F00D100BF13880B4029
:1024B0000BB1012000E00020704701F40072B2F57A
:1024C000007F00D100BFCA430280704770B502464A
:1024D000002400230025002040F66A16B14200D1F6
:1024E00000BFC1F3421501F01F03012606FA03F3F2
:1024F000012D13D19689334017E0000000100140F0
:102500000044004000480040004C004000500040A3
:102510000014014000780040007C0040022D02D1F0
:10252000168A334001E0968A33400C12012606FADF
:1025300004F41688344013B10CB1012000E00020EF
:1025400070BD10B50022002340F66A14A14200D1EC
:1025500000BF0A1201249440A3B2DC43048010BDE2
:10256000016821F00101016000210160416081608A
:10257000C160016121214161DB49884204D13D21D3
:10258000D94A103A91608CE0D7491831884205D178
:102590004FF47461D44A103A916082E0D2493031EC
:1025A000884205D14FF47411CF4A103A916078E017
:1025B000CD494831884205D14FF07461CA4A103A7A
:1025C00091606EE0C8496031884204D1C749C64A6B
:1025D000103AD16065E0C4497831884204D1C449D9
:1025E000C14A103AD1605CE0BF499031884204D1C1
:1025F000C049BD4A103AD16053E0BB49A831884276
:1026000005D14FF03D51B84A103AD16049E0BA497E
:10261000884204D13D21B84A083A116041E0B649E8
:102620001831884205D14FF47461B34A083A1160F9
:1026300037E0B1493031884205D14FF47411AE4AC8
:10264000083A11602DE0AC494831884205D14FF07D
:102650007461A94A083A116023E0A74960318842B1
:1026600004D1A249A44A121F11601AE0A24978318C
:10267000884204D19E49A04A121F116011E09E4970
:102680009031884204D19B499B4A121F116008E097
:102690009949A831884204D14FF03D51964A121F02
:1026A0001160704710B500220268944B1A40CC6844
:1026B0000B6823434C6923438C692343CC69234330
:1026C0000C6A23434C6A23438C6A23434C6B234399
:1026D0008C6B23431A430260426922F00702D1E95E
:1026E0000B3423431A4342610B6943604B68836098
:1026F0008B68C36010BD0021016041608160C160D2
:10270000016141618161C161016241628162C162B5
:10271000016341638163704721B1026842F00102A5
:10272000026003E0026822F001020260704721B1FA
:10273000026842F40042026003E0026822F40042B0
:102740000260704721B1026842F02002026003E09B
:10275000026822F020020260704741607047014623
:10276000486880B2704722B1036843F400230360D5
:1027700003E0036823F4002303600161704721B183
:10278000026842F48022026003E0026822F48022A0
:10279000026070470AB1016100E0C1607047014604
:1027A00000200A6802F400220AB1012000E00020A3
:1027B0007047014600200A6802F001020AB10120B8
:1027C00000E000207047014600204A6902F038000E
:1027D000704730B503460A4600200024464DAB4200
:1027E00002D24149103901E04349103902F0005545
:1027F0000DB14C6800E00C68414D2C4004EA020524
:102800000DB1012000E0002030BD02463A4B9A4253
:1028100002D23548103801E03748103801F0005333
:102820001BB1374B0B40C36002E0354B0B4083605C
:10283000704710B501F080034BB122B1436943F0FA
:102840008003436103E0436923F0800343618029EF
:102850000BD02AB1036801F01E042343036004E097
:10286000036801F01E04A343036010BD70B5024667
:10287000002000240025204EB24202D21A4B103B09
:1028800001E01D4B103B1F4E0E4036B11E2606EADE
:10289000D124166806EA040502E0566906F08005B0
:1028A00001F000560EB15C6800E01C68144E344024
:1028B00004EA010616B10DB1012000E0002070BD50
:1028C00002460D4B9A4202D20748103801E00A48EE
:1028D000103801F000531BB1094B0B40C36002E0FC
:1028E000074B0B4083607047106002403D000020A2
:1028F000400F002000003D20106402403F801CF08B
:102900007D0F7D0F3C0F3C0F10B50446FB48844201
:1029100008D101218014FFF70AFB0021A014FFF762
:1029200006FB3CE0F648844208D101210014FFF781
:10293000EDFA00212014FFF7E9FA30E0F148844273
:1029400008D10121C013FFF7E1FA0021E013FFF7DE
:10295000DDFA24E0EC48844208D101214014FFF75D
:10296000E6FA00216014FFF7E2FA18E0E748844233
:1029700009D101210805FFF7DAFA00214FF4801090
:10298000FFF7D5FA0BE0E248844208D1012148055F
:10299000FFF7CDFA00214FF40010FFF7C8FA10BD81
:1029A00010B50022028802F441520B884C88234360
:1029B0008C882343CC8823430C8923434C892343AD
:1029C0008C892343CC8923431A430280838B4FF2A3
:1029D000FF74234083830B8A038210BD2DE9F04FDF
:1029E0000025022300244FF00109002200260027C1
:1029F00094469046B0F81CA04FF2400B0AEA0B0A2E
:102A0000A0F81CA04FF0020AA0F820A0858BD1F8F6
:102A100008A0BAF1020F01D100BF82E0B1F804A012
:102A2000BAF1000F02D14FF0010901E04FF00209A5
:102A3000DFF8E0A2DAF800A00AF4000ABAF1000F09
:102A400009D0DFF8D0A2DAF800A02AF4000ADFF8F3
:102A5000C4B2CBF800A0DFF8BCA20AF17C0ADAF815
:102A600000A0CAF3881CDFF8ACA20AF17C0ADAF8ED
:102A700000A0CAF30278DFF89CA2AAF1040ADAF8EF
:102A800000A00AF03F07DFF88CA2AAF1040ADAF8E6
:102A900000A00AF4800ABAF5800F08D1DFF878A206
:102AA000BAFBF7FA0AFB0CFABAFBF8F607E0DFF814
:102AB0006CA2BAFBF7FA0AFB0CFABAFBF8F6B1F80B
:102AC00006A0BAF5007F0ED14FEA162A0AEB8A0A51
:102AD0004FEA4A0AD1F808B0BAFBFBFA0AF1050A34
:102AE0001FFA8AF20FE04FEA491AB6FBFAFA0AEB2C
:102AF0008A0A4FEA4A0AD1F808B0BAFBFBFA0AF18F
:102B0000050A1FFA8AF24FF00A0AB2FBFAF202F043
:102B10000104A2EB040ACAF34F034FF6FF7A0AEA54
:102B20000424022B01DBFF2B01DD02230024B1F87A
:102B300006A04AEA040A4AEA030AA0F820A0B1F86B
:102B400004A0B1F80CB04AEA0B0AB1F802B04AEAA4
:102B50000B0AB1F800B04AEA0B0A4AF4006A4AEAE2
:102B600005058583BDE8F08F0021018041808180CB
:102B7000C180018141818181C1810721018270472A
:102B80000021018041808180C1800221816000217B
:102B90008181704721B1028842F04002028004E046
:102BA00002884FF6BF731A400280704721B1828BB2
:102BB00042F48062828304E0828B4FF6FF331A4036
:102BC0008283704702884FF2FF731A4002800288A6
:102BD0000A4302807047B1F5804F04D1028842F465
:102BE0008042028004E002884BF6FF731A400280A4
:102BF00070474FF6FF62914204D0028842F480721F
:102C0000028004E002884FF6FF631A40028070479A
:102C100021B1828842F00402828004E082884FF66B
:102C2000FB731A408280704721B1828842F0100203
:102C3000828004E082884FF6EF731A4082807047EA
:102C400030B500220023848B4FF240052C40848352
:102C500002240484828B0C88B4F5007F01D00C8898
:102C600014B94FF4807308E00C88B4F5407F03D0AA
:102C70000C88B4F5807F00D100238C888D892C438B
:102C80004D882C431C4344F400642243828330BDAE
:102C90000146888970478181704721B1028842F4DA
:102CA0000052028004E002884DF6FF731A40028051
:102CB0007047018841F4805101807047024600202E
:102CC000012901D0108B00E0908A70470146088AE4
:102CD00070471AB183880B43838002E083888B435B
:102CE0008380704730B5002400230C110125A540D6
:102CF000ABB2AAB185881D43858014E00030014045
:102D000000380040003C00400034014000500140C9
:102D1000005401400838024000127A000024F400F8
:102D200085889D43858030BD0246002013890B4075
:102D30000BB1012000E000207047CA4302817047B8
:102D4000F0B50246002000240023002501F00F0703
:102D50000126BE40B4B20B1101269E40B3B2968844
:102D600006EA03051689264016B10DB1012000E0E0
:102D70000020F0BD10B5002201F00F040123A34094
:102D80009AB2D343038110BD10B50446FE48844275
:102D900008D101210846FFF7CAF800210120FFF7FA
:102DA000C6F89DE0B4F1804F08D101210846FFF735
:102DB000ADF800210120FFF7A9F891E0F348844223
:102DC00008D101210220FFF7A1F800210220FFF71E
:102DD0009DF885E0EE48844208D101210420FFF7E8
:102DE00095F800210420FFF791F879E0E948844242
:102DF00008D101210820FFF789F800210820FFF7FA
:102E000085F86DE0E448844208D101211020FFF7E5
:102E10007DF800211020FFF779F861E0DF48844257
:102E200008D101212020FFF771F800212020FFF7B1
:102E30006DF855E0DA48844208D101210220FFF7FD
:102E400076F800210220FFF772F849E0D548844265
:102E500009D101210804FFF76AF800214FF48030FE
:102E6000FFF765F83CE0D048844209D101214804CD
:102E7000FFF75DF800214FF40030FFF758F82FE01E
:102E8000CA48844209D101218804FFF750F8002183
:102E90004FF48020FFF74BF822E0C548844208D168
:102EA00001214020FFF732F800214020FFF72EF8E3
:102EB00016E0C048844208D101218020FFF726F89F
:102EC00000218020FFF722F80AE0BB48844207D1A6
:102ED00001218015FFF71AF80021A015FFF716F859
:102EE00010BD00220288A84B98420ED0AC4B9842ED
:102EF0000BD0B0F1804F08D0A44B984205D0A44B22
:102F0000984202D0A34B984204D14FF68F731A40D7
:102F10004B881A43A04B984207D0A04B984204D04C
:102F20004FF6FF431A400B891A4302804B68C36275
:102F30000B880385944B984202D0994B984201D15B
:102F40008B7A03860123838270474FF0FF31416003
:102F50000021018001814180817270470185828258
:102F600070470A46002101884FF68F7319401143BC
:102F70000180704741627047C16270470146486AEC
:102F800070470146088D704721B1028842F0020265
:102F9000028004E002884FF6FD731A4002807047F9
:102FA00021B1028842F00402028004E002884FF658
:102FB000FB731A400280704721B1028842F0800200
:102FC000028004E002884FF67F731A400280704747
:102FD00002884FF6F7731A40028002880A43028083
:102FE000704702884FF6FF431A40028002880A4366
:102FF0000280704721B1028842F00102028004E0A1
:1030000002884FF6FE731A400280704770B50024A4
:1030100000220023058C4FF6FE7635400584028C95
:103020008388048B4FF68F752C40B51E2C400D887D
:103030002C43751E2A408D892A434D882A43524DC0
:10304000A84202D0564DA84213D14FF6F7752A4038
:10305000CD892A434FF6FB752A408D882A434FF6C7
:10306000FF652B404FF6FF552B400D8A2B434D8AB1
:103070002B43838004838D684563028470BD70B5E3
:10308000002400220023058C4FF6EF76354005849E
:10309000028C8388048B48F6FF752C404FF6FF4561
:1030A0002C400D884FF6FF7606EA05252C434FF697
:1030B000DF752A408D8906EA05152A434D8806EA00
:1030C00005152A43304DA84202D0354DA8421DD1E6
:1030D0004FF67F752A40CD894FF6FF7606EA051533
:1030E0002A434FF6BF752A408D8806EA05152A4304
:1030F0004FF6FF352B404FF2FF752B400D8A06EA45
:1031000085052B434D8A06EA85052B43838004837E
:103110008D688563028470BD70B500240022002391
:10312000058C4FF6FF6635400584028C8388848BBE
:103130004FF68F752C404FF6FC752C400D882C43B4
:103140004FF6FF552A408D894FF6FF7606EA052592
:103150002A434D8806EA05252A430B4DA84202D092
:103160000F4DA84238D14FF2FF752A40CD894FF656
:10317000FF7606EA05252A434FF6FF352A408D885B
:1031800006EA05252A4319E000000140000400403A
:1031900000080040000C00400010004000140040F7
:1031A000000401400040014000440140004801404B
:1031B00000180040001C0040002000404EF6FF7543
:1031C0002B404DF6FF752B400D8A06EA05152B4363
:1031D0004D8A06EA05152B43838084838D68C56379
:1031E000028470BD70B5002200230024058C4EF6C9
:1031F000FF7635400584038C8488828B48F6FF7502
:103200002A404FF6FF452A400D884FF6FF7606EA22
:1032100005252A434DF6FF752B408D8906EA0535B5
:103220002B434D8806EA05352B43FE4DA84202D0BC
:10323000FD4DA84208D14BF6FF752C400D8A4FF684
:10324000FF7606EA85152C43848082838D680564A9
:10325000038470BD00210180418081808160818173
:10326000C18101824182704770B50346002000246D
:103270001846183001258D40ACB21D8CA5431D8425
:1032800009B108290AD100EB610005684FF68F7675
:10329000354005600568154305600FE00D1FC5F357
:1032A0004E052844056848F6FF76354005600568F8
:1032B0004FF6FF7606EA02263543056070BD41638E
:1032C000704781637047C1637047016470470A4665
:1032D0000021018B4FF68F73194011430183704712
:1032E0000A460021018B48F6FF7319404FF6FF7321
:1032F00003EA02231943018370470A460021818BA8
:103300004FF68F7319401143818370470A4600219D
:10331000818B48F6FF7319404FF6FF7303EA0223CF
:103320001943818370470A460021018B4FF6F773DA
:1033300019401143018370470A460021018B4FF267
:10334000FF7319404FF6FF7303EA02231943018309
:1033500070470A460021818B4FF6F77319401143DD
:10336000818370470A460021818B4FF2FF73194019
:103370004FF6FF7303EA02231943818370470A461D
:103380000021018B4FF6FB731940114301837047F5
:103390000A460021018B4FF6FF3319404FF6FF73A9
:1033A00003EA02231943018370470A460021818BF7
:1033B0004FF6FB7319401143818370470A46002181
:1033C000818B4FF6FF3319404FF6FF7303EA022358
:1033D0001943818370470A460021018B4FF67F73A2
:1033E00019401143018370470A460021018BC1F344
:1033F0000E014FF6FF7303EA02231943018370475E
:103400000A460021818B4FF67F7319401143818357
:1034100070470A460021818BC1F30E014FF6FF73FE
:1034200003EA02231943818370470A460021018C75
:103430004FF6FD7319401143018470470A4600217D
:10344000018C4FF6F77319401143018470470A4607
:103450000021018C4FF6DF7319404FF6FF7303EA2A
:1034600002131943018470470A460021018C4FF66C
:103470007F7319404FF6FF7303EA02131943018467
:1034800070470A460021018C4FF6FF5319404FF652
:10349000FF7303EA02231943018470470A4600219F
:1034A000018C4FF2FF7319404FF6FF7303EA0223BA
:1034B0001943018470470A460021018C4DF6FF73C1
:1034C00019404FF6FF7303EA023319430184704732
:1034D00030B5002301248C40A3B2048C9C430484A7
:1034E000048C02FA01F5ADB22C43048430BD30B532
:1034F000002304248C40A3B2048C9C430484048CD9
:1035000002FA01F5ADB22C43048430BD828B4FF238
:10351000FF331A408283828B4FF6FF7303EA012345
:103520001A4382837047F0B50C46154600210022ED
:103530000026078C4EF6FF7C07EA0C070784818B78
:10354000028C4FF6FF7707EA043640F6FF47394012
:103550004FF6FF7707EA052739434FF6FF7707EA6B
:103560000337394345F6FF773A4046F480573A43EC
:1035700081830284F0BD828B4FF6F3731A408283FD
:10358000828B0A4382837047F0B50C4615460021B2
:1035900000220026078C4FF6FF6C07EA0C07078411
:1035A000818B028C4FF6FF7707EA04264FF60C77E3
:1035B00039404FF6FF7707EA03172F4339434FF29D
:1035C000FF573A4046F480773A4381830284F0BD46
:1035D000028B4FF2FF331A400283028B4FF6FF73C8
:1035E00003EA01231A4302837047F0B50C461546DF
:1035F000002100220026078C4FF6EF7C07EA0C071B
:103600000784018B028C4FF6FF7707EA041640F619
:10361000FF4739404FF6FF7707EA033739434FF644
:10362000FF7703E0000001400004014007EA05279E
:1036300039434FF65F773A4046F010073A4301832B
:103640000284F0BD028B4FF6F3731A400283028BA3
:103650000A4302837047F0B50C461546002100224C
:10366000068C4FF6FE773E400684018B028C4FF6A7
:103670000C7631407E1C06EA03162E4331434FF68A
:10368000F576324044F00106324301830284F0BDF6
:1036900070B505460C46208850B92389A2886188F8
:1036A0002846FFF7D8FFE1882846FFF7CBFF25E043
:1036B000208804280AD12389A28861882846FFF738
:1036C00094FFE1882846FFF783FF17E02088082849
:1036D0000AD12389A28861882846FFF755FFE1882F
:1036E0002846FFF748FF09E02389A2886188284619
:1036F000FFF719FFE1882846FFF708FF70BD00219A
:1037000001804180012181800021C18001817047B9
:103710002DE9F04105460C4600260127608808B9CE
:10372000022600E00026A088012801D1022700E03F
:1037300001272088A0B92389A28861882846FFF73D
:103740008AFFE1882846FFF77DFF23893A46314604
:103750002846FFF74AFFE1882846FFF739FF13E0C4
:103760002389A28861882846FFF73FFFE188284621
:10377000FFF72EFF23893A4631462846FFF76BFFB5
:10378000E1882846FFF75EFFBDE8F0810146486BFF
:1037900070470146886B70470146C86B7047014609
:1037A000086C70470A884B881A438B881A43CB8869
:1037B0001A430B891A434B891A438B891A43A0F881
:1037C000442070470021018041808180C1800181B7
:1037D00041818181704731B1B0F8442042F4004208
:1037E000A0F8442005E0B0F84420C2F30E02A0F88F
:1037F0004420704721B1828842F00402828004E0B4
:1038000082884FF6FB731A408280704721B182880C
:1038100042F00102828004E082884FF6FE731A4073
:10382000828070471AB183890B43838102E08389C8
:103830008B43838170478182704702460020138A40
:103840000B400BB1012000E000207047CA43028208
:10385000704730B50246002000230024158A05EA8F
:103860000103958905EA010413B10CB1012000E0C0
:10387000002030BDCA430282704741EA0203A0F82B
:10388000483070471AB183890B43838102E08389F2
:103890008B438381704721B1828842F00802828085
:1038A00004E082884FF6F7731A40828070470189DE
:1038B0004FF6F8721140018170470A4600210189D4
:1038C0004FF68F73194011430181704730B504469C
:1038D0000D4629462046FFF7F0FF208940F00700FB
:1038E000208130BD2DE9F04104460D4616461F46A5
:1038F000602D06D13B46012231462046FFF775FE7A
:1039000005E03B46012231462046FFF7A4FE29464A
:103910002046FFF7D2FF208940F007002081BDE854
:10392000F08130B50C4600210189C9B24FF6FF7510
:1039300005EA0325154325432943018130BD2DE9BF
:10394000F04105460E4617469846002443463A463F
:1039500031462846FFF7E5FF2C894FF6F870044002
:1039600044F007044FF68F70044044F070042C813B
:10397000BDE8F081F0B504460D4616461F463B46AD
:10398000324629462046FFF7CCFF208940F480408C
:103990002081F0BD82884FF68F731A408280828822
:1039A0000A438280704702894FF6F8731A400281F9
:1039B00002890A430281704702894FF67F731A40D9
:1039C000028102890A4302817047F0B50C46154610
:1039D0001E460021002200230189028B038C4FF632
:1039E000F877394021434FF6FC473A4040F201173F
:1039F0003A434FF6DD773B404FF6FF7707EA06176D
:103A00002F433B43018102830384F0BD21B18288AF
:103A100042F08002828004E082884FF67F731A4071
:103A200082807047A0F85010704700000020414984
:103A30000860091D0860091D0860091D08603E48EE
:103A40003C4914310860704700213A498279002AC4
:103A50003AD00A46126803689A430B461A600A1D58
:103A6000126803689A430B1D1A60027911440A68B0
:103A700003681A430A602F4A0832126803689A439F
:103A80002C4B08331A601A1D126803689A43294B9D
:103A90000C331A604279102A0ED11A1F126803687B
:103AA0001A43244B08331A601A1D126803681A431C
:103AB000204B0C331A600DE01E49427911440A680C
:103AC00003681A430A6005E0027911440A68036832
:103AD0009A430A6070470021016001710C21417115
:103AE0000021817170471349103109680143114A5F
:103AF000103211607047014600200E4A14321268DD
:103B00000A400AB1012000E0002070470949143141
:103B10000860704701460020064A143212680A40C5
:103B20000AB1012000E0002070470249143108600A
:103B300070470000003C0140FFFF7F00704700001D
:103B40000FB4044910B503AA029800F0EFF910BCB5
:103B50005DF814FB6800002070B5044685690068B4
:103B6000C10601D5302600E02026C00707D070BD71
:103B7000D4E9012130469047206A401C20626D1E26
:103B8000F6D570BD70B5044685690078C00707D1C9
:103B900070BDD4E9012120209047206A401C20629A
:103BA0006D1EF6D570BD70B50C460546012A05D0D0
:103BB0002878800600D5EA69002302E0012305E0A9
:103BC0005B1C934202D2E05C0028F9D1A869E61898
:103BD000C01AA861286A184428622846FFF7BCFF6B
:103BE00004E0D5E9012114F8010B9047B442F8D361
:103BF0002846FFF7C7FF70BD2DE9F04106460024B7
:103C000010687529314616A510D0AFF30080002842
:103C100002DA404213A507E031688A0701D512A5F0
:103C200002E0490704D511A5012401E0AFF30080AB
:103C300000210A2206F1240709E0B0FBF2FCB0FBE8
:103C4000F2F302FB1C00303078541846491C00285F
:103C5000F3D123462A463046BDE8F04100F0F6B8DD
:103C6000000000002D0000002B00000020000000DC
:103C700070B504460D4621461068AFF300802188D8
:103C8000090502D50F4A7A4402E00E4A7A440E3200
:103C9000002104F1240305E000F00F060009965D01
:103CA0005E54491C0028F7D120780023000704D572
:103CB000702D02D009B1022311322046BDE87040B8
:103CC00000F0C4B8E70300002DE9F05F8946044620
:103CD0004FF0000ADFF824B1FB44C0F820A02046D2
:103CE000E168884700287DD0252806D0D4E9012145
:103CF0009047206A401C2062F1E700255F4620467D
:103D0000E16888472028064607DB312E05D2B8191E
:103D100010F8200C08B10543F1E7A80701D525F0FC
:103D20000405C4F81CA00027C4F818A02A2E09D046
:103D3000304600F081F938B304EB8708303EC8F80C
:103D4000186019E059F8041B204604EB87029161C2
:103D5000E1688847012F064618D1E069002820DA7B
:103D600025F020051DE0D8F8180000EB800006EBD8
:103D700040003038C8F818002046E16888470646F9
:103D800000F05AF90028EED1012F0AD02E2E08D1CA
:103D90002046E16888477F1C0646022F45F0200533
:103DA000C4DBA069002803DA404245F00105A061A8
:103DB000E80701D025F01005A6B1A6F141001928A9
:103DC00002D8203645F400654A4631462046256033
:103DD0004D46FCF713FA60B1012807D0ED1D25F020
:103DE000070000E007E000F1080978E705F10409A1
:103DF00075E730467AE7206ABDE8F09FBD03000012
:103E00004FF000020429C0F0128010F0030C00F003
:103E1000A180CCF1040CBCF1020F18BF00F8012BFB
:103E2000A8BF20F8022BA1EB0C0100F093B85FEAC9
:103E3000C17C24BF00F8012B00F8012B48BF00F81B
:103E4000012B704770477047704770472DE9F04766
:103E50000D4699469246044600F1240801688806FA
:103E600004D5E06921F01001216000E00120A842A2
:103E700001DD471B00E00027A1697A1902EB090068
:103E8000081AA0612078C00602D42046FFF764FE1D
:103E9000002608E0D4E901211AF806009047206ABC
:103EA000401C761C20624E45F4DB2078C0060AD503
:103EB0002046FFF751FE06E0D4E90121302090476B
:103EC000206A401C2062381EA7F10107F4DC07E0DD
:103ED000D4E9012118F805009047206A401C2062AF
:103EE000281EA5F10105F3DC2046FFF74BFE2078E4
:103EF000000602D50220BDE8F0870120FBE710B5DF
:103F0000436913B1AFF3008001E0FFF74CFE0120DD
:103F100010BD127800F124010A7000224A700122BB
:103F2000EDE711684FF0FF32E9E70000074B70B58D
:103F30000D467B4400F039F80446284600F048F866
:103F400010B14FF0FF3070BD204670BDE7D5FFFFC8
:103F50004FF0000200B5134694469646203922BF22
:103F6000A0E80C50A0E80C50B1F12001BFF4F7AF6D
:103F7000090728BFA0E80C5048BF0CC05DF804EB4F
:103F8000890028BF40F8042B08BF704748BF20F8BD
:103F9000022B11F0804F18BF00F8012B7047000072
:103FA00001694A1C02610878704700B58FB0CDE9FD
:103FB00001310021059105497944CDE903101146ED
:103FC0006846FFF781FE0FB000BD0000E5FFFFFF70
:103FD000007B00F080007047754600F029F8AE467F
:103FE00005006946534620F00700854618B020B505
:103FF000FDF748FBBDE820404FF000064FF00007FA
:104000004FF000084FF0000B21F00701AC46ACE880
:10401000C009ACE8C009ACE8C009ACE8C0098D46ED
:1040200070470446AFF300802046FCF701F900001A
:1040300000487047E806002030380A2801D20120E5
:104040007047002070474FF04070E1EE100A704753
:1040500064000000640000006400FFFFFF00FFFF39
:10406000FF007F6A00000000FFFFFF4169E10000E0
:1040700037303132333435363738394142434445AD
:1040800046403058003031323334353637383961B4
:104090006263646566403078000400000800000038
:1040A000000000000200010000100000CC400008E9
:1040B0000000002080000000C40100084C410008FE
:1040C00080000020C80C0000E00100080000010092
:1040D00000000101000000010000000101000000DB
:1040E00001000000010100000001010000010000CA
:1040F00000000000007A030A000000000000000039
:104100000102030406070809010000000000000086
:10411000000000000000000000000000000000009F
:10412000000000000000000000000000000000008F
:10413000000000000000000000000000000001027C
:0C41400003040102030406070809000044
:040000050800018965
:00000001FF
